:020000040800F2
:1000000070060020890100082707000893030008F4
:100010004904000843020008C70C00080000000063
:10002000000000000000000000000000DD070008E4
:100030004702000800000000990700085109000865
:10004000A3010008A3010008A3010008A301000800
:10005000A3010008A3010008A3010008A3010008F0
:10006000A3010008A3010008A3010008A3010008E0
:10007000A3010008A3010008A3010008A3010008D0
:10008000A3010008A3010008A3010008A3010008C0
:10009000A3010008A3010008A3010008A3010008B0
:1000A000A3010008A3010008A3010008A3010008A0
:1000B000B5090008A3010008A3010008A301000876
:1000C000A3010008A3010008A3010008A301000880
:1000D000A3010008A3010008A3010008A301000870
:1000E000A3010008A3010008A301000800F002F822
:1000F00000F03AF80AA090E8000C82448344AAF188
:100100000107DA4501D100F02FF8AFF2090EBAE885
:100110000F0013F0010F18BFFB1A43F0010318473B
:10012000EC0B00000C0C0000103A24BF78C878C11A
:10013000FAD8520724BF30C830C144BF04680C60ED
:10014000704700000023002400250026103A28BF35
:1001500078C1FBD8520728BF30C148BF0B60704739
:100160001FB51FBD10B510BD00F031F81146FFF7E7
:10017000F7FF00F0AAFD00F04FF803B4FFF7F2FF1D
:1001800003BC00F057F800000948804709480047C1
:10019000FEE7FEE7FEE7FEE7FEE7FEE7FEE7FEE737
:1001A000FEE7FEE704480549054A064B7047000094
:1001B00055090008ED0000087000002070060020BE
:1001C000700200207002002070477047704775462B
:1001D00000F02CF8AE4605006946534620F00700B3
:1001E000854618B020B5FFF7DDFFBDE820404FF091
:1001F00000064FF000074FF000084FF0000B21F011
:100200000701AC46ACE8C009ACE8C009ACE8C009DD
:10021000ACE8C0098D46704710B50446AFF30080C6
:100220002046BDE81040FFF7A8BF00000048704717
:100230000C00002001491820ABBEFEE7260002009A
:10024000704700BFFEE7704710B5034600F002FD9F
:10025000044600BF1946204600F0F0FC0028F9D003
:1002600010BD2DE9F04102460025002600200023A4
:100270000024002791F803C00CF00F0591F803C08B
:100280000CF0100CBCF1000F03D091F802C04CEA46
:10029000050591F800C0BCF1000F31D014680020B2
:1002A0002BE04FF0010C0CFA00F3B1F800C00CEA9F
:1002B00003069E4220D183004FF00F0C0CFA03F787
:1002C000BC4305FA03FC4CEA040491F803C0BCF1FA
:1002D000280F06D14FF0010C0CFA00FCC2F814C034
:1002E0000AE091F803C0BCF1480F05D14FF0010CB2
:1002F0000CFA00FCC2F810C0401C0828D1D31460CE
:10030000B1F800C0BCF1FF0F34DD546800202EE0CE
:1003100000F1080C4FF0010808FA0CF3B1F800C026
:100320000CEA03069E4221D183004FF00F0C0CFA19
:1003300003F7BC4305FA03FC4CEA040491F803C03C
:10034000BCF1280F05D100F1080C08FA0CF8C2F82E
:10035000148091F803C0BCF1480F07D100F1080CDC
:100360004FF0010808FA0CF8C2F81080401C082869
:10037000CED35460BDE8F0810246002093680B4064
:100380000BB1012000E0002070474161704701611E
:10039000704700BFFEE7000010B501210848FFF7D5
:1003A000EBFF04464CB91420FFF74EFF012104482F
:1003B000FFF7E2FF08B9012010BD0020FCE70000B4
:1003C0000010014008B50121102000F0F7F90120CC
:1003D000ADF8000048208DF8030069460148FFF79A
:1003E00040FF08BD00100140014800787047000040
:1003F0000500002010B5FFF7E5FF10BD10B5FFF7B1
:10040000CBFF80B10D48007868B901200B49087016
:100410000B480078401C032190FBF1F201FB120015
:100420000749087008E001210648FFF7A5FF0128E9
:1004300002D100200149087010BD00000400002016
:10044000050000200010014000BFFEE710B500F0DD
:10045000C6F90446012C0CD1022000F0E3F84FF459
:10046000FA71084600F038F94FF4FA70FFF7ECFE25
:1004700025E0022C0CD1032000F0D4F84FF4FA71DF
:10048000084600F029F94FF4FA70FFF7DDFE16E098
:10049000032C0CD1022000F0C5F84FF4FA71084685
:1004A00000F01AF94FF4FA70FFF7CEFE07E00020D3
:1004B00000F0B8F84FF41671084600F00DF910BDC1
:1004C00010B5022000F0AEF84FF41671481000F09D
:1004D00003F910BD10B51948006818B900F0BAFB4F
:1004E000164908604FF47A711448006800F0A6FBC2
:1004F00040B1022000F096F84FF4C871084600F0B1
:10050000EBF81AE04FF4FA610C48006800F096FB33
:1005100058B1032000F086F84FF4C871084600F087
:10052000DBF800200549086007E0002000F07AF8B9
:100530004FF4FA71084600F0CFF810BD000000201B
:1005400008B50121082000F039F90F20ADF80000AE
:1005500010208DF8030003208DF80200694604483E
:10056000FFF77FFE0F210248FFF711FF08BD0000D3
:10057000000C014010B5FFF7E3FF00F001F810BDDB
:1005800000B589B00121022000F008F90121052001
:1005900000F014F90320ADF8200018208DF8230096
:1005A00003208DF8220008A91C48FFF75AFE4720B7
:1005B000ADF814000020ADF8160040F2E730ADF8B9
:1005C00018000020ADF81A0005A9154800F0E4FA5B
:1005D0006020ADF804000120ADF806000020ADF861
:1005E0000A00ADF80C0001A90D4800F02BFA01A992
:1005F0000B4800F081FA0821094800F073FA08213D
:10060000074800F0B7FA0121054800F0E5F901219B
:10061000034800F0F0F909B000BD000000080140F7
:100620000004004010B50446052C51D2DFE804F068
:1006300003142536470001212648FFF7A6FE0221B4
:100640002448FFF7A4FE04212248FFF79EFE08215C
:100650002048FFF79CFE3BE001211E48FFF797FE74
:1006600002211C48FFF791FE04211A48FFF78FFE74
:1006700008211848FFF789FE2AE001211548FFF7F5
:1006800086FE02211348FFF780FE04211148FFF780
:100690007CFE08210F48FFF77AFE19E001210D4882
:1006A000FFF773FE02210B48FFF771FE0421094892
:1006B000FFF76DFE08210748FFF767FE08E00321FA
:1006C0000448FFF764FE0C210248FFF760FE00BFFC
:1006D00000BF10BD000C014070B504460D46B4F5D6
:1006E0007A7F02DB40F2E73000E020460446B5F5B1
:1006F0007A7F02DB40F2E73000E0284605462146DB
:10070000034800F044FA2946014800F042FA70BD5F
:100710000004004010B50420FFF784FF00210846C4
:10072000FFF7DAFF10BD704770B5002100230F22DC
:10073000C47804B3154C246804F4E064C4F5E064A0
:10074000210AC1F10403CA40447804FA03F1847811
:100750001440214309010E4C0678A155047804F099
:100760001F050124AC4005786D11AD0005F1E025B1
:10077000C5F8004109E0047804F01F050124AC40ED
:10078000044D0678761145F8264070BD0CED00E06A
:1007900000E400E080E100E07047000029B1064A73
:1007A000D2690243044BDA6104E0034AD26982430E
:1007B000014BDA61704700000010024029B1064A7F
:1007C00092690243044B9A6104E0034A92698243AE
:1007D000014B9A617047000000100240704770B5ED
:1007E000102000F02FF80446202000F02BF80546DA
:1007F000402000F027F806461DB114B10EB10420C8
:1008000070BD0DB10120FBE70CB10220F8E70EB17D
:100810000320F5E70020F3E708B501210820FFF7E2
:10082000CDFF7020ADF8000048208DF803000320B4
:100830008DF8020069460248FFF713FD08BD00006D
:10084000000C014010B5044621460448FFF794FD12
:1008500008B9012010BD0020FCE70000000C014099
:1008600010B5FFF7D9FF10BD10B500F001F810BDAD
:100870000CB50020019000903348006840F48030AF
:100880003149086000BF3048006800F40030009033
:100890000198401C0190009818B90198B0F5A06F1C
:1008A000F1D12948006800F4003010B10120009017
:1008B00001E0002000900098012843D123480068FF
:1008C00040F01000214908600846006820F003004D
:1008D00008600846006840F0020008601A48406856
:1008E000194948600846406848600846406840F436
:1008F000806048600846406820F47C1048600846E4
:10090000406840F4E81048600846006840F0807095
:10091000086000BF0C48006800F000700028F9D0A3
:100920000948406820F003000749486008464068CD
:1009300040F00200486000BF0348406800F00C002F
:100940000828F9D10CBD0000001002400020024030
:100950007047000010B51348006840F001001149CD
:10096000086008464068104908400E49486008463B
:1009700000680E4908400B4908600846006820F4EA
:10098000802008600846406820F4FE0048604FF46C
:100990001F008860FFF768FF4FF00060044908609F
:1009A00010BD0000001002400000FFF8FFFFF6FE3F
:1009B00008ED00E010B50121880700F028F840B1EB
:1009C0000121880700F014F802480068401C014922
:1009D000086010BD0800002021B1028842F08002AA
:1009E000028004E002884FF67F731A40028070474D
:1009F000CA430282704721B1028842F0010202809C
:100A000004E002884FF6FE731A400280704730B54A
:100A10000246002000230024158A05EA0103958977
:100A200005EA010413B10CB1012000E0002030BD43
:100A30001AB183890B43838102E083898B438381CD
:100A40007047000070B5002400220023058C4FF68B
:100A5000FF6635400584028C8388848B4FF68F7542
:100A60002C404FF6FC752C400D882C434FF6FF555B
:100A70002A400D894FF6FF7606EA05252A434D8860
:100A800006EA05252A43154DA84202D0144DA84276
:100A90001DD14FF2FF752A404D894FF6FF7606EAC9
:100AA00005252A434FF6FF352A408D8806EA05259D
:100AB0002A434EF6FF752B404DF6FF752B408D896E
:100AC00006EA05152B43CD8906EA05152B438380DD
:100AD0008483CD888587028470BD0000002C01408E
:100AE000003401400A460021818B4FF6F77319400C
:100AF000114381837047000070B500220023002459
:100B0000058C4EF6FF7635400584038C8488828BF5
:100B100048F6FF752A404FF6FF452A400D884FF6EC
:100B2000FF7606EA05252A434DF6FF752B400D8911
:100B300006EA05352B434D8806EA05352B430B4D58
:100B4000A84202D00A4DA84208D14BF6FF752C40AE
:100B50008D894FF6FF7606EA85152C4384808283C3
:100B6000CD88A0F84050038470BD0000002C0140E7
:100B7000003401400A460021818B4FF2FF73194077
:100B80004FF6FF7303EA022319438183704781877D
:100B90007047A0F840107047002202881D4B984211
:100BA0000ED01D4B98420BD0B0F1804F08D01B4B9C
:100BB000984205D01A4B984202D01A4B984204D161
:100BC0004FF68F731A404B881A43174B984207D041
:100BD000164B984204D04FF6FF431A40CB881A4375
:100BE00002808B8883850B8803850A4B98420BD043
:100BF000094B984208D00E4B984205D00D4B9842B5
:100C000002D00D4B984201D10B7A038601238382D7
:100C100070470000002C01400034014000040040F7
:100C200000080040000C004000100040001400408C
:100C300000400140004401400048014000B5024628
:100C400000F008F8801A884201D3012000BD00207E
:100C5000FCE7000001480068704700000800002021
:100C600010B500F001F810BD1FB501210846FFF7CF
:100C700095FD41F61F40ADF804000020ADF80600D8
:100C80000920ADF808000020ADF80A0001A94FF0D6
:100C90008040FFF781FF012211469007FFF7C8FE51
:100CA0001C208DF8000000208DF8010001208DF837
:100CB00002008DF803006846FFF736FD0121880722
:100CC000FFF799FE1FBD00BFFEE7FFF7C9FFFFF763
:100CD00051FCFFF7C5FDFFF78DFB16E0FFF78EFB1C
:100CE000FFF782FB20B1012805D0022809D105E0D9
:100CF000FFF7ACFB08E0FFF7EDFB05E0FFF7E0FBDB
:100D000002E0FFF707FD00BF00BFE7E72C0D00087A
:100D1000000000200C00000028010008380D000829
:100D20000C000020640600004401000800000000E0
:080D30000000000000000000BB
:04000005080000ED02
:00000001FF
